{
  "_format": "hh-sol-artifact-1",
  "contractName": "Router",
  "sourceName": "contracts/Router.sol",
  "abi": [
    {
      "inputs": [],
      "stateMutability": "nonpayable",
      "type": "constructor"
    },
    {
      "anonymous": false,
      "inputs": [
        {
          "indexed": true,
          "internalType": "address",
          "name": "asset",
          "type": "address"
        }
      ],
      "name": "Accepted",
      "type": "event"
    },
    {
      "anonymous": false,
      "inputs": [
        {
          "indexed": true,
          "internalType": "bytes32",
          "name": "account",
          "type": "bytes32"
        },
        {
          "indexed": true,
          "internalType": "address",
          "name": "asset",
          "type": "address"
        },
        {
          "indexed": false,
          "internalType": "uint256",
          "name": "amount",
          "type": "uint256"
        }
      ],
      "name": "Deposit",
      "type": "event"
    },
    {
      "anonymous": false,
      "inputs": [
        {
          "indexed": true,
          "internalType": "address",
          "name": "oldOwner",
          "type": "address"
        },
        {
          "indexed": true,
          "internalType": "address",
          "name": "newOwner",
          "type": "address"
        }
      ],
      "name": "OwnershipTransferProposed",
      "type": "event"
    },
    {
      "anonymous": false,
      "inputs": [
        {
          "indexed": true,
          "internalType": "address",
          "name": "oldOwner",
          "type": "address"
        },
        {
          "indexed": true,
          "internalType": "address",
          "name": "newOwner",
          "type": "address"
        }
      ],
      "name": "OwnershipTransferred",
      "type": "event"
    },
    {
      "anonymous": false,
      "inputs": [
        {
          "indexed": true,
          "internalType": "address",
          "name": "asset",
          "type": "address"
        }
      ],
      "name": "Removed",
      "type": "event"
    },
    {
      "anonymous": false,
      "inputs": [
        {
          "indexed": true,
          "internalType": "address",
          "name": "account",
          "type": "address"
        },
        {
          "indexed": true,
          "internalType": "address",
          "name": "asset",
          "type": "address"
        },
        {
          "indexed": false,
          "internalType": "uint256",
          "name": "amount",
          "type": "uint256"
        }
      ],
      "name": "Withdraw",
      "type": "event"
    },
    {
      "inputs": [
        {
          "internalType": "address",
          "name": "_address",
          "type": "address"
        }
      ],
      "name": "acceptToken",
      "outputs": [],
      "stateMutability": "nonpayable",
      "type": "function"
    },
    {
      "inputs": [],
      "name": "claimOwnership",
      "outputs": [],
      "stateMutability": "nonpayable",
      "type": "function"
    },
    {
      "inputs": [
        {
          "internalType": "bytes32",
          "name": "account",
          "type": "bytes32"
        },
        {
          "internalType": "address",
          "name": "asset",
          "type": "address"
        },
        {
          "internalType": "uint256",
          "name": "amount",
          "type": "uint256"
        }
      ],
      "name": "deposit",
      "outputs": [
        {
          "internalType": "bool",
          "name": "",
          "type": "bool"
        }
      ],
      "stateMutability": "payable",
      "type": "function"
    },
    {
      "inputs": [
        {
          "internalType": "address",
          "name": "",
          "type": "address"
        }
      ],
      "name": "isAccepted",
      "outputs": [
        {
          "internalType": "bool",
          "name": "",
          "type": "bool"
        }
      ],
      "stateMutability": "view",
      "type": "function"
    },
    {
      "inputs": [],
      "name": "owner",
      "outputs": [
        {
          "internalType": "address",
          "name": "",
          "type": "address"
        }
      ],
      "stateMutability": "view",
      "type": "function"
    },
    {
      "inputs": [],
      "name": "pendingOwner",
      "outputs": [
        {
          "internalType": "address",
          "name": "",
          "type": "address"
        }
      ],
      "stateMutability": "view",
      "type": "function"
    },
    {
      "inputs": [
        {
          "internalType": "address",
          "name": "_address",
          "type": "address"
        }
      ],
      "name": "removeToken",
      "outputs": [],
      "stateMutability": "nonpayable",
      "type": "function"
    },
    {
      "inputs": [
        {
          "internalType": "address",
          "name": "newOwner",
          "type": "address"
        }
      ],
      "name": "transferOwnership",
      "outputs": [],
      "stateMutability": "nonpayable",
      "type": "function"
    },
    {
      "inputs": [
        {
          "internalType": "address",
          "name": "account",
          "type": "address"
        },
        {
          "internalType": "address",
          "name": "asset",
          "type": "address"
        },
        {
          "internalType": "uint256",
          "name": "amount",
          "type": "uint256"
        }
      ],
      "name": "withdraw",
      "outputs": [
        {
          "internalType": "bool",
          "name": "",
          "type": "bool"
        }
      ],
      "stateMutability": "payable",
      "type": "function"
    }
  ],
  "bytecode": "0x608060405234801561001057600080fd5b50610019610023565b600160025561007a565b60008054336001600160a01b0319808316821784556001805490911690556040516001600160a01b0390921692909183917f8be0079c531659141344cd1fd0a4f28419497f9722a3daafe3b4186f6b6457e091a350565b610eb3806100896000396000f3fe6080604052600436106100865760003560e01c8063d954863c11610059578063d954863c1461011f578063d9caed1214610142578063e30c397814610155578063e6f091f914610175578063f2fde38b146101a557600080fd5b80634e71e0c81461008b5780635fa7b584146100a25780638cd3f064146100c25780638da5cb5b146100e2575b600080fd5b34801561009757600080fd5b506100a06101c5565b005b3480156100ae57600080fd5b506100a06100bd366004610cc7565b61023a565b3480156100ce57600080fd5b506100a06100dd366004610cc7565b6102ad565b3480156100ee57600080fd5b50600054610102906001600160a01b031681565b6040516001600160a01b0390911681526020015b60405180910390f35b61013261012d366004610d3c565b610323565b6040519015158152602001610116565b610132610150366004610ce1565b6106cd565b34801561016157600080fd5b50600154610102906001600160a01b031681565b34801561018157600080fd5b50610132610190366004610cc7565b60036020526000908152604090205460ff1681565b3480156101b157600080fd5b506100a06101c0366004610cc7565b6108e7565b6001546001600160a01b031633146102305760405162461bcd60e51b8152602060048201526024808201527f5330323a2063616c6c6572206973206e6f74207468652070656e64696e67206f6044820152633bb732b960e11b60648201526084015b60405180910390fd5b610238610962565b565b6000546001600160a01b031633146102645760405162461bcd60e51b815260040161022790610df7565b6001600160a01b038116600081815260036020526040808220805460ff19169055517f066a905b79c0121afe61e3a44e0b14b6bc1ec16d854cdba09efdfc9b6aa9af819190a250565b6000546001600160a01b031633146102d75760405162461bcd60e51b815260040161022790610df7565b6001600160a01b038116600081815260036020526040808220805460ff19166001179055517f2e7bcc1a1a1c1bea0ff9a677c29b43662d6560afbebd99c213389fc15a6279d29190a250565b60006002805414156103775760405162461bcd60e51b815260206004820152601f60248201527f5265656e7472616e637947756172643a207265656e7472616e742063616c6c006044820152606401610227565b600280556001600160a01b0383166104d657346103ca5760405162461bcd60e51b8152602060048201526011602482015270150c0c4e88115512081c995c5d5a5c9959607a1b6044820152606401610227565b8134146103e95760405162461bcd60e51b815260040161022790610dc7565b600080546040516001600160a01b039091169084908381818185875af1925050503d8060008114610436576040519150601f19603f3d011682016040523d82523d6000602084013e61043b565b606091505b505090508061048c5760405162461bcd60e51b815260206004820152601960248201527f5430333a2053656e6420746f206f776e6572206661696c6564000000000000006044820152606401610227565b836001600160a01b0316857f182fa52899142d44ff5c45a6354d3b3e868d5b07db6a65580b39bd321bdaf8ac856040516104c891815260200190565b60405180910390a3506106bf565b6001600160a01b03831660009081526003602052604090205460ff1661053e5760405162461bcd60e51b815260206004820152601760248201527f5430343a204173736574206e6f742061636365707465640000000000000000006044820152606401610227565b341561055c5760405162461bcd60e51b815260040161022790610dc7565b6040516370a0823160e01b81523060048201526000906001600160a01b038516906370a082319060240160206040518083038186803b15801561059e57600080fd5b505afa1580156105b2573d6000803e3d6000fd5b505050506040513d601f19601f820116820180604052508101906105d69190610d60565b90506105ed6001600160a01b0385163330866109b9565b6040516370a0823160e01b81523060048201526000906001600160a01b038616906370a082319060240160206040518083038186803b15801561062f57600080fd5b505afa158015610643573d6000803e3d6000fd5b505050506040513d601f19601f820116820180604052508101906106679190610d60565b905060006106758383610e2e565b9050856001600160a01b0316877f182fa52899142d44ff5c45a6354d3b3e868d5b07db6a65580b39bd321bdaf8ac836040516106b391815260200190565b60405180910390a35050505b506001806002559392505050565b600080546001600160a01b031633146106f85760405162461bcd60e51b815260040161022790610df7565b60028054141561074a5760405162461bcd60e51b815260206004820152601f60248201527f5265656e7472616e637947756172643a207265656e7472616e742063616c6c006044820152606401610227565b600280556001600160a01b03831661085a5734821461077b5760405162461bcd60e51b815260040161022790610dc7565b6000846001600160a01b03168360405160006040518083038185875af1925050503d80600081146107c8576040519150601f19603f3d011682016040523d82523d6000602084013e6107cd565b606091505b50509050806108155760405162461bcd60e51b8152602060048201526014602482015273150c0d4e881dda5d1a191c985dc819985a5b195960621b6044820152606401610227565b836001600160a01b0316856001600160a01b03167f9b1bfa7fa9ee420a16e124f794c35ac9f90472acc99140eb2f6447c714cad8eb856040516104c891815260200190565b34156108785760405162461bcd60e51b815260040161022790610dc7565b61088c6001600160a01b0384168584610a2a565b826001600160a01b0316846001600160a01b03167f9b1bfa7fa9ee420a16e124f794c35ac9f90472acc99140eb2f6447c714cad8eb846040516108d191815260200190565b60405180910390a3506001806002559392505050565b6000546001600160a01b031633146109115760405162461bcd60e51b815260040161022790610df7565b600180546001600160a01b0319166001600160a01b0383811691821790925560008054604051929316917ff4e75b79500ab730f8a026ed3cba6d55331bcb64c9e9f60c548e371356e5e3c09190a350565b60008054336001600160a01b0319808316821784556001805490911690556040516001600160a01b0390921692909183917f8be0079c531659141344cd1fd0a4f28419497f9722a3daafe3b4186f6b6457e091a350565b6040516001600160a01b0380851660248301528316604482015260648101829052610a249085906323b872dd60e01b906084015b60408051601f198184030181529190526020810180516001600160e01b03166001600160e01b031990931692909217909152610a5f565b50505050565b6040516001600160a01b038316602482015260448101829052610a5a90849063a9059cbb60e01b906064016109ed565b505050565b6000610ab4826040518060400160405280602081526020017f5361666545524332303a206c6f772d6c6576656c2063616c6c206661696c6564815250856001600160a01b0316610b319092919063ffffffff16565b805190915015610a5a5780806020019051810190610ad29190610d1c565b610a5a5760405162461bcd60e51b815260206004820152602a60248201527f5361666545524332303a204552433230206f7065726174696f6e20646964206e6044820152691bdd081cdd58d8d9595960b21b6064820152608401610227565b6060610b408484600085610b4a565b90505b9392505050565b606082471015610bab5760405162461bcd60e51b815260206004820152602660248201527f416464726573733a20696e73756666696369656e742062616c616e636520666f6044820152651c8818d85b1b60d21b6064820152608401610227565b843b610bf95760405162461bcd60e51b815260206004820152601d60248201527f416464726573733a2063616c6c20746f206e6f6e2d636f6e74726163740000006044820152606401610227565b600080866001600160a01b03168587604051610c159190610d78565b60006040518083038185875af1925050503d8060008114610c52576040519150601f19603f3d011682016040523d82523d6000602084013e610c57565b606091505b5091509150610c67828286610c72565b979650505050505050565b60608315610c81575081610b43565b825115610c915782518084602001fd5b8160405162461bcd60e51b81526004016102279190610d94565b80356001600160a01b0381168114610cc257600080fd5b919050565b600060208284031215610cd8578081fd5b610b4382610cab565b600080600060608486031215610cf5578182fd5b610cfe84610cab565b9250610d0c60208501610cab565b9150604084013590509250925092565b600060208284031215610d2d578081fd5b81518015158114610b43578182fd5b600080600060608486031215610d50578283fd5b83359250610d0c60208501610cab565b600060208284031215610d71578081fd5b5051919050565b60008251610d8a818460208701610e51565b9190910192915050565b6020815260008251806020840152610db3816040850160208701610e51565b601f01601f19169190910160400192915050565b6020808252601690820152755430323a20496e76616c6964204554482076616c756560501b604082015260600190565b6020808252601c908201527f5330313a2063616c6c6572206973206e6f7420746865206f776e657200000000604082015260600190565b600082821015610e4c57634e487b7160e01b81526011600452602481fd5b500390565b60005b83811015610e6c578181015183820152602001610e54565b83811115610a24575050600091015256fea2646970667358221220e911ae9a70d7d347fa8842ea067ff53f133c8fd90dcc7271a32446d7435f0ef964736f6c63430008040033",
  "linkReferences": {},
  "deployedLinkReferences": {}
}